:100000000C9414050C943C050C943C050C943C0594
:100010000C943C050C943C050C943C050C943C055C
:100020000C943C050C943C050C943C050C943C054C
:100030000C943C050C943C050C943C050C943C053C
:100040000C94481F0C943C050C9481190C945B197A
:100050000C943C050C943C050C943C050C943C051C
:100060000C9490110C943C05444F4E45210057725E
:100070006974696E6721004552524F522100001F7A
:10008000F000000000000000000000000000003F41
:10009000F80000000000000000000000000000FF69
:1000A000FE0000000000000000000000000001FF52
:1000B000FF8000000000000000000000000003FFBF
:1000C000FFC000000000000000000000000007FF6B
:1000D000FFE00000000000000000000000000FFF33
:1000E000FFE00000000000000000000000000E0320
:1000F000C0F007FB0C7C618FC61BFCFC07F01E01E7
:10010000C07807FB0CFE619FE61BFDFC04101E314E
:100110008E7800C30CC661986618618E04103E3953
:100120008E7800C30CC661986618618606303E3929
:100130008E7C00C30CC66198661861C000003E3119
:100140008FFC00C30CC66198061860E007F03E0300
:100150008FFCF8C3FCC6619807F8607004103E0776
:100160008FFCF8C3FCC66199E7F8603804103E23A1
:100170008FFC00C30CC66199E618601C07E03E23A3
:100180008E7C00C30CC661986618600E00003E337A
:100190008E7800C30CC661986618618607F03E3100
:1001A0008E7800C30CC66198661861C601C01E3106
:1001B0008E7800C30CC67398E61861C607001E3817
:1001C000C07000C30CFE3F1FE61860FE61C00E3811
:1001D000E0F000C30C7C3F0F6618607C67F00FFFF7
:1001E000FFE000000000000000000000000007FF2A
:1001F000FFC000000000000000000000000003FF3E
:10020000FF8000000000000000000000000001FF6F
:10021000FF00000000000000000000000000007F60
:10022000FE00000000000000000000000000001FB1
:10023000F000000000000000000000000000524636
:1002400049442D50726F6772616D6D657200432D68
:1002500056616C7565004379636C6573004361702A
:1002600061636974790043656C6C730042617474F6
:100270006572792049440020205246494420446157
:10028000746120446973706C61790052432D546825
:100290006F756768747300783130303000783130B2
:1002A000300078313000783100202042617474656C
:1002B0007279204944206E756D6265720052432D3B
:1002C00054686F7567687473007831303030007827
:1002D00031303000783130007831005300204261F5
:1002E00074746572792043656C6C20436F756E740D
:1002F0000052432D54686F7567687473007831300D
:100300003030007831303000783130007831006D95
:100310004168006D4168006D4168006D4168006D85
:1003200041680020204261747465727920436170D5
:1003300061636974790052432D54686F75676874FE
:10034000730078313030300078313030007831301F
:100350000078310020202042617474657279204356
:1003600079636C65730052432D54686F75676874C8
:1003700073007831303030007831303000783130EF
:100380000078310043002020204261747465727946
:1003900020432D56616C75650000000000003E5B37
:1003A0004F5B3E3E6B4F6B3E1C3E7C3E1C183C7EC2
:1003B0003C181C577D571C1C5E7F5E1C00183C18A7
:1003C00000FFE7C3E7FF0018241800FFE7DBE7FFA3
:1003D00030483A060E2629792926407F0505074030
:1003E0007F05253F5A3CE73C5A7F3E1C1C08081CF1
:1003F0001C3E7F14227F22145F5F005F5F06097F2F
:10040000017F006689956A606060606094A2FFA2C7
:100410009408047E040810207E201008082A1C0876
:10042000081C2A08081E101010100C1E0C1E0C3080
:10043000383E3830060E3E0E060000000000000078
:100440005F00000007000700147F147F14242A7F38
:100450002A12231308646236495620500008070305
:1004600000001C2241000041221C002A1C7F1C2A83
:1004700008083E08080080703000080808080800D6
:100480000060600020100804023E5149453E0042D1
:100490007F400072494949462141494D33181412A1
:1004A0007F1027454545393C4A49493141211109C9
:1004B000073649494936464949291E0000140000BB
:1004C00000403400000008142241141414141400D5
:1004D0004122140802015909063E415D594E7C1221
:1004E00011127C7F494949363E414141227F4141B9
:1004F000413E7F494949417F090909013E41415136
:10050000737F0808087F00417F41002040413F0180
:100510007F081422417F404040407F021C027F7FC1
:100520000408107F3E4141413E7F090909063E41D2
:1005300051215E7F09192946264949493203017F25
:1005400001033F4040403F1F2040201F3F403840B4
:100550003F631408146303047804036159494D434D
:10056000007F4141410204081020004141417F04C5
:1005700002010204404040404000030708002054AC
:100580005478407F2844443838444444283844440C
:10059000287F385454541800087E090218A4A49CDB
:1005A000787F0804047800447D40002040403D00EE
:1005B0007F1028440000417F40007C047804787C50
:1005C000080404783844444438FC182424181824B7
:1005D0002418FC7C08040408485454542404043FA0
:1005E00044243C4040207C1C2040201C3C403040A7
:1005F0003C44281028444C9090907C4464544C44D3
:100600000008364100000077000000413608000273
:10061000010204023C2623263C1EA1A161123A409D
:1006200040207A3854545559215555794122545413
:100630007842215554784020545579400C1E52720E
:1006400012395555555939545454593955545458EB
:100650000000457C410002457D420001457C407D13
:100660001211127DF0282528F07C545545002054A5
:10067000547C547C0A097F4932494949323A4444FE
:10068000443A324A4848303A4141217A3A4240207D
:1006900078009DA0A07D3D4242423D3D4040403D0E
:1006A0003C24FF2424487E4943662B2FFC2F2BFF3C
:1006B0000929F620C0887E0903205454794100009E
:1006C000447D413048484A32384040227A007A0A14
:1006D0000A727D0D19317D2629292F2826292929DD
:1006E0002630484D4020380808080808080808380F
:1006F0002F10C8ACBA2F102834FA00007B00000875
:10070000142A142222142A14085500550055AA55FB
:10071000AA55AAFF55FF55FF000000FF001010105A
:10072000FF00141414FF001010FF00FF1010F01051
:10073000F0141414FC001414F700FF0000FF00FF75
:100740001414F404FC141417101F10101F101F149D
:1007500014141F00101010F0000000001F101010E3
:10076000101F10101010F010000000FF10101010DB
:100770001010101010FF10000000FF140000FF0008
:10078000FF00001F10170000FC04F41414171017CA
:100790001414F404F40000FF00F7141414141414D7
:1007A00014F700F7141414171410101F101F14144A
:1007B00014F4141010F010F000001F101F000000BF
:1007C0001F14000000FC140000F010F01010FF10C7
:1007D000FF141414FF141010101F00000000F0107C
:1007E000FFFFFFFFFFF0F0F0F0F0FFFFFF00000061
:1007F0000000FFFF0F0F0F0F0F3844443844FC4A2E
:100800004A4A347E02020606027E027E026355498F
:1008100041633844443C04407E201E2006027E0290
:100820000299A5E7A5991C2A492A1C4C7201724C11
:10083000304A4D4D303048784830BC625A463D3ED3
:10084000494949007E0101017E2A2A2A2A2A444474
:100850005F444440514A444040444A51400000FFF4
:100860000103E080FF000008086B6B083612362495
:1008700036060F090F0600001818000000101000BF
:100880003040FF0101001F01011E00191D17120059
:100890003C3C3C3C000000000001020408102040E9
:1008A000800102040810200102040810200000004A
:1008B00000250028002B000404040404040404029E
:1008C0000202020202030303030303432D56616C79
:1008D00075653A200043656C6C733A200043796378
:1008E0006C65733A200043617061636974793A20E2
:1008F0000049443A200052432D54686F756768746C
:100900007320496E666F0000000000240027002A53
:10091000000000000023002600290000000008005D
:100920000201000003040700000000000000004175
:10093000204D49464152452050494343207265733A
:10094000706F6E6465642077697468204E414B2E29
:1009500000546865204352435F4120646F657320F3
:100960006E6F74206D617463682E00496E76616CE1
:10097000696420617267756D656E742E00496E74CE
:1009800065726E616C206572726F7220696E207480
:10099000686520636F64652E2053686F756C6420F2
:1009A0006E6F742068617070656E2E0041206275F4
:1009B00066666572206973206E6F742062696720B5
:1009C000656E6F7567682E0054696D656F7574206C
:1009D000696E20636F6D6D756E69636174696F6EAA
:1009E0002E00436F6C6C697373696F6E206465745D
:1009F00065637465642E004572726F7220696E20A3
:100A0000636F6D6D756E69636174696F6E2E0053EF
:100A10007563636573732E00556E6B6E6F776E2012
:100A20006572726F7200E42111241FBECFEFD8E00F
:100A3000DEBFCDBF16E0A0E0B1E0ECE4FCE402C014
:100A400005900D92AE31B107D9F728E0AEE1B6E0DE
:100A500001C01D92A631B207E1F715E0C4E1D5E06F
:100A600004C02197FE010E941026C331D107C9F7A7
:100A70000E94B4220C9424260C9400000E941615A7
:100A800081E08093AB071092A4071092A307109205
:100A9000A6071092A50781E090E09093AA078093A3
:100AA000A9079093A8078093A70764E573E087E9F7
:100AB00097E00E94D91883E08093AB078091DC0710
:100AC0009091DD078A30910518F427E330E014C0D7
:100AD0009C012A5031092A35310518F42EE230E004
:100AE0000BC09C01245631092438334018F423E20A
:100AF00030E002C02AE130E03093A4072093A3073E
:100B000024E130E03093A6072093A5070E946415E6
:100B100081E08093AB071092A4071092A30788E3AB
:100B200090E09093A6078093A5078091000590918F
:100B30000105019731F461E573E087E997E00E94D0
:100B4000D91880910005909101050A9731F46DE460
:100B500073E087E997E00E94D91880910005909191
:100B600001058436910531F468E473E087E997E084
:100B70000E94D9188091000590910105883E93400C
:100B800031F462E473E087E997E00E94D9188BE3BF
:100B900090E09093A4078093A30788E390E090935C
:100BA000A6078093A50766E373E087E997E00E94B4
:100BB000D9180C949414CF930E941615C1E0C093D9
:100BC000AB071092A4071092A3071092A6071092E9
:100BD000A50781E090E09093AA078093A9079093DE
:100BE000A8078093A70763E273E087E997E00E9474
:100BF000D91883E08093AB078091DE079091DF07DF
:100C00008A309105F8F427E330E03093A40720936D
:100C1000A30724E130E03093A6072093A5070E94A4
:100C20006415C093AB0789E490E09093A407809388
:100C3000A30782E290E09093A6078093A5076FE157
:100C400073E08DC09C012A5031092A353105F8F432
:100C50002EE230E03093A4072093A30724E130E094
:100C60003093A6072093A5070E946415C093AB0795
:100C700082E590E09093A4078093A30782E290E03E
:100C80009093A6078093A5076BE173E068C09C0171
:100C90002456310924383340F8F425E230E030930B
:100CA000A4072093A30724E130E03093A607209304
:100CB000A5070E946415C093AB078BE590E0909365
:100CC000A4078093A30782E290E09093A607809305
:100CD000A50767E173E043C09C01285E33402832DA
:100CE0003342F8F42CE130E03093A4072093A307BB
:100CF00024E130E03093A6072093A5070E946415F5
:100D0000C093AB0784E690E09093A4078093A30779
:100D100082E290E09093A6078093A50763E173E0D9
:100D20001EC02EE030E03093A4072093A30724E1F7
:100D300030E03093A6072093A5070E946415C09366
:100D4000AB0789E690E09093A4078093A30782E223
:100D500090E09093A6078093A5076FE073E087E982
:100D600097E00E94D91881E08093AB071092A40706
:100D70001092A30788E390E09093A6078093A507BD
:100D80008091000590910105019731F46CE073E0CA
:100D900087E997E00E94D91880910005909101059C
:100DA0000A9731F468E073E087E997E00E94D91868
:100DB00080910005909101058436910531F463E03E
:100DC00073E087E997E00E94D9188091000590911F
:100DD0000105883E934031F46DEF72E087E997E0BA
:100DE0000E94D9188BE390E09093A4078093A30707
:100DF00088E390E09093A6078093A50761EF72E0E7
:100E000087E997E00E94D918CF910C9494140E941E
:100E1000161581E08093AB071092A4071092A307E8
:100E20001092A6071092A50781E090E09093AA0780
:100E30008093A9079093A8078093A7076DED72E0B0
:100E400087E997E00E94D91883E08093AB078091EF
:100E5000DA079091DB078A30910518F42EE230E032
:100E600008C09C012A5031092A35310560F423E27B
:100E700030E03093A4072093A30724E130E03093BF
:100E8000A6072093A5070E9464156BED72E087E921
:100E900097E00E94D91881E08093AB071092A407D5
:100EA0001092A30788E390E09093A6078093A5078C
:100EB0008091000590910105019731F468ED72E091
:100EC00087E997E00E94D91880910005909101056B
:100ED0000A9731F464ED72E087E997E00E94D9182F
:100EE00080910005909101058436910531F46FECF5
:100EF00072E087E997E00E94D918809100059091EF
:100F00000105883E934031F469EC72E087E997E08F
:100F10000E94D9188BE390E09093A4078093A307D5
:100F200088E390E09093A6078093A5076DEB72E0AD
:100F300087E997E00E94D9180C9494140E94161522
:100F400081E08093AB071092A4071092A307109240
:100F5000A6071092A50781E090E09093AA078093DE
:100F6000A9079093A8078093A70769EA72E087E929
:100F700097E00E94D91883E08093AB078091E00747
:100F80009091E1078A30910518F427E330E014C00E
:100F90009C012A5031092A35310518F42EE230E03F
:100FA0000BC09C01245631092438334018F423E245
:100FB00030E002C02AE130E03093A4072093A30779
:100FC00024E130E03093A6072093A5070E94641522
:100FD00081E08093AB071092A4071092A30788E3E7
:100FE00090E09093A6078093A507809100059091CB
:100FF0000105019731F466EA72E087E997E00E9403
:10100000D91880910005909101050A9731F462EAA0
:1010100072E087E997E00E94D918809100059091CD
:1010200001058436910531F46DE972E087E997E0B6
:101030000E94D9188091000590910105883E934047
:1010400031F467E972E087E997E00E94D9188BE3F1
:1010500090E09093A4078093A30788E390E0909397
:10106000A6078093A5076BE872E087E997E00E94E6
:10107000D9180C9494148091D6079091D7070197B2
:1010800031F41092E1071092E0070E949E078091D0
:10109000D6079091D707029731F41092DB07109290
:1010A000DA070E9407078091D6079091D707039728
:1010B00031F41092DF071092DE070E94DB05809169
:1010C000D6079091D707049731F41092DD0710925C
:1010D000DC070E943E058091D6079091D7070597BF
:1010E00031F41092D9071092D8070C94F412089595
:1010F0008091D6079091D7070197B1F42091000510
:10110000309101058091E0079091E107820F931FD4
:10111000803127E2920710F08FE097E29093E10789
:101120008093E0070E949E078091D6079091D70791
:101130000297A9F420910005309101058091DA070A
:101140009091DB07820F931F8436910510F083E6A0
:1011500090E09093DB078093DA070E940707809165
:10116000D6079091D7070397B1F4209100053091ED
:1011700001058091DE079091DF07820F931F8F3F5B
:101180002FEF920711F48EEF9FEF9093DF0780937C
:10119000DE070E94DB058091D6079091D707049760
:1011A000B1F420910005309101058091DC07909108
:1011B000DD07820F931F883E23E0920710F087EE31
:1011C00093E09093DD078093DC070E943E058091B9
:1011D000D6079091D7070597B1F42091000530917B
:1011E00001058091D8079091D907820F931F883EFF
:1011F00023E0920710F087EE93E09093D907809355
:10120000D8070C94F4120895CF92DF92EF92FF92D8
:101210000F931F93CF93DF930E941615C7E9D7E072
:101220001D861C861F861E8681E090E09B8B8A8B24
:10123000998B888B11E01C8B67E772E0CE010E94CE
:10124000D9181C8B83E0E82EF12CFD86EC869EE0FD
:10125000C92ED12CDF86CE866CE672E0CE010E94CC
:10126000D9180BE410E01D870C87DF86CE868091AD
:10127000E0079091E1070E946415FD86EC8627E166
:10128000C22ED12CDF86CE8666E672E0CE010E94A9
:10129000D9181D870C87DF86CE868091DA0790915A
:1012A000DB070E9464156CE675E0CE010E94FD1814
:1012B000FD86EC8630E2C32ED12CDF86CE866DE52E
:1012C00072E0CE010E94D9181D870C87DF86CE867A
:1012D0008091DE079091DF070E9464156EE675E04D
:1012E000CE010E94FD18FD86EC8649E2C42ED12C69
:1012F000DF86CE8666E572E0CE010E94D9181D8792
:101300000C87DF86CE868091DC079091DD070E94F6
:101310006415FD86EC8652E3E52EF12CFF86EE8601
:101320006EE472E0CE010E94D9181D870C87FF86FB
:10133000EE868091D8079091D9070E94641562E7E4
:1013400075E0CE010E94FD180E9494141092D707F8
:101350001092D607DF91CF911F910F91FF90EF90E0
:10136000DF90CF9008958091D6079091D707892B71
:1013700011F40E9404098091D6079091D707019734
:1013800011F40E949E078091D6079091D70702978B
:1013900011F40E9407078091D6079091D707039711
:1013A00011F40E94DB058091D6079091D70704972E
:1013B00011F40E943E058091D6079091D7070597BA
:1013C00011F40C94F4120895809100059091010598
:1013D0008130910519F48AE090E011C08A309105BE
:1013E00019F484E690E00BC08436910519F488EE78
:1013F00093E005C0883E934041F481E090E09093F3
:101400000105809300050C94B3090895DF92EF92D3
:10141000FF920F931F93CF93DF930E94161581E0E5
:1014200090E09093AA078093A9079093A8078093D0
:10143000A7078093AB0782E190E09093A407809385
:10144000A3078CE290E09093A6078093A5076EE334
:1014500072E087E997E00E94D91800E010E098E078
:10146000E92EF12CD12CC0E0D0E0CE018770992775
:10147000892B11F0DD0C0BC0FE0183E0F595E7959B
:101480008A95E1F7E00FF11FE258FF4FD490D7FEA5
:1014900008C021E030E0A701BE0187E997E00E9483
:1014A000780D2196C038D10501F78FEFE81AF80AB8
:1014B000005F1F4F003C81E01807A9F6DF91CF9134
:1014C0001F910F91FF90EF90DF900C9494148091F6
:1014D000D6079091D70701969093D7078093D607A8
:1014E000069709F00DC18091E307882309F4D9C05C
:1014F0000E94161582E08093AB0781E090E0909304
:10150000AA078093A9079093A8078093A70784E16F
:1015100090E09093A4078093A3078BE190E09093D1
:10152000A6078093A5076EE670E087E997E00E9422
:10153000D9180E9494140E94CE168091E0079091D1
:10154000E10790930008809301088091DE07909155
:10155000DF0790930208809303088091DC07909145
:10156000DD0790930408809305088091DA07909135
:10157000DB0790930608809307088CE390E00E94B5
:1015800086208091D8079091D90790930008809386
:1015900001088DE390E00E9486201092E20764EF3C
:1015A00071E080E090E00E940E1F8CE390E00E94CA
:1015B00005218091EE0790E0982F88272091EF0772
:1015C000822B9093E1078093E0078091F00790E0F1
:1015D000982F88272091F107822B9093DF07809323
:1015E000DE078091F20790E0982F88272091F3077B
:1015F000822B9093DD078093DC078091F40790E0C5
:10160000982F88272091F507822B9093DB078093F2
:10161000DA078DE390E00E9405218091EE0790E0CB
:10162000982F88272091EF07822B9093D9078093DA
:10163000D80781E08093E4079091E207911102C0FE
:101640008093E2070E94161583E08093AB0781E048
:1016500090E09093AA078093A9079093A80780939E
:10166000A70789E190E09093A4078093A30786E100
:1016700090E09093A6078093A50768E670E087E95D
:1016800097E00E94D9180E9494146EEE72E080E0F8
:1016900090E00E940E1F1092D7071092D6070C946C
:1016A00004090E94161582E08093AB0781E090E068
:1016B0009093AA078093A9079093A8078093A70700
:1016C0008AE190E09093A4078093A3078BE190E0D8
:1016D0009093A6078093A50767E770E087E997E0F6
:1016E0000E94D9180E94941460ED77E080E090E0A9
:1016F0000E940E1F1092D7071092D6070C94060A6C
:101700000C94B3096F927F928F929F92AF92BF9287
:10171000CF92DF92EF92FF920F931F93CF93DF93BD
:10172000EC014B015A0169013801E881F981068019
:10173000F781E02D0995E881F9810684F785E02D90
:1017400087019601A501B401CE010995E881F981CF
:10175000A501460D571D415051090684F785E02D1E
:101760009601B401CE010995E881F9810484F585DB
:10177000E02D9301A501B401CE010995E881F9811D
:10178000C80CD91CB601615071090484F585E02D9F
:101790009301A501CE010995E881F9810288F389B9
:1017A000E02DCE01DF91CF911F910F91FF90EF902F
:1017B000DF90CF90BF90AF909F908F907F906F9071
:1017C0000994CF92DF92EF92FF920F931F93CF93E2
:1017D000DF9300D000D000D0CDB7DEB76C01DC01C4
:1017E000ED91FC916217730789F4041715072CF427
:1017F000942F852FA801092F182F041B150B980172
:101800002F5F3F4F008CF18DE02D12C04017510724
:1018100009F5261737072CF4962F872FB901292FA2
:10182000382F261B370B2F5F3F4F028CF38DE02D97
:101830008701C601099526960FB6F894DEBF0FBE44
:10184000CDBFDF91CF911F910F91FF90EF90DF906F
:10185000CF9008950680F781E02D2D833E834B8342
:101860005C8369837A830995D601ED91FC910088A8
:10187000F189E02D2D813E814B815C8169817A81E6
:10188000C6010995D601ED91FC910288F389E02DFE
:10189000C60126960FB6F894DEBF0FBECDBFDF910E
:1018A000CF911F910F91FF90EF90DF90CF9009940F
:1018B000EF92FF920F931F93DC01ED91FC91119732
:1018C0001A960D911C911B9718962D913C91199782
:1018D000048CF58DE02D7B0140E050E060E070E08D
:1018E00009951F910F91FF90EF9008954F925F928D
:1018F0006F927F928F929F92AF92BF92CF92DF9220
:10190000EF92FF920F931F93CF93DF9300D0CDB749
:10191000DEB76C015A0139014801DC01ED91FC91FF
:101920000680F781E02D69837A8309956981462EC7
:101930007A81572E640C751CD601ED91FC914614EA
:1019400057046CF40484F585E02D87019401A5010A
:10195000B201C6010995BFEF4B1A5B0AEDCF0288B1
:10196000F389E02DC6010F900F90DF91CF911F9169
:101970000F91FF90EF90DF90CF90BF90AF909F902E
:101980008F907F906F905F904F900994AF92BF922D
:10199000CF92DF92EF92FF920F931F93CF93DF933B
:1019A00000D000D0CDB7DEB75C016901DC01ED915C
:1019B000FC910680F781E02D4B835C8369837A83F9
:1019C0000995D501ED91FC9169817A819B012C0DDE
:1019D0003D1D215031090088F189E02D78014B81AE
:1019E0005C818A01C5010995D501ED91FC910288C0
:1019F000F389E02DC5010F900F900F900F90DF91AC
:101A0000CF911F910F91FF90EF90DF90CF90BF90FB
:101A1000AF900994AF92BF92CF92DF92EF92FF9274
:101A20000F931F93CF93DF9300D000D0CDB7DEB7D5
:101A30005C016901DC01ED91FC910680F781E02DEC
:101A40004B835C8369837A830995D501ED91FC9181
:101A50004B815C81C40ED51EB1E0CB1AD108008841
:101A6000F189E02D7801860169817A819B01C501A8
:101A70000995D501ED91FC910288F389E02DC5010E
:101A80000F900F900F900F90DF91CF911F910F91BA
:101A9000FF90EF90DF90CF90BF90AF9009940895A2
:101AA000EF92FF920F931F93DC01ED91FC91048C58
:101AB000F58DE02D09951F910F91FF90EF900895FE
:101AC0000F931F93DC01ED91FC91028CF38DE02DBF
:101AD00009951F910F9108950F931F93DC01ED91CC
:101AE000FC91008CF18DE02D09951F910F910895C7
:101AF000DC01ED91FC910480F581E02D09940895BD
:101B00002F923F924F925F926F927F928F929F920D
:101B1000AF92BF92CF92DF92EF92FF920F931F93FB
:101B2000CF93DF9300D01F92CDB7DEB74C017B83FC
:101B30006A836A01590117019801241B350B37FF8D
:101B400003C0319521953109C5014A815B81841B10
:101B5000950B97FF03C091958195910951E05983A9
:101B60008217930714F019820BC09A2D8B2D580100
:101B7000092F182F9A818B81DB82CA82C92ED82E19
:101B80008A819B81A816B9065CF49C2D8D2D680175
:101B9000092F182F9A818B81BB82AA82A92EB82E79
:101BA0002501AA81BB814A1A5B0A38016C187D089D
:101BB00077FE03C0719461947108720157FE03C0EF
:101BC000BFEFEB1AFB0AF594E794C016D1061CF0A0
:101BD0000FEF1FEF1FC001E010E01CC0D401ED911A
:101BE000FC91B9810084F185E02D9101BB23C1F006
:101BF0004A815B81B601C4010995E618F708F7FE32
:101C000004C0C00ED11EE40CF51CEA81FB813196A4
:101C1000FB83EA834A815B81A416B506FCF604C007
:101C2000A6016A817B81E7CF0F900F900F90DF9123
:101C3000CF911F910F91FF90EF90DF90CF90BF90C9
:101C4000AF909F908F907F906F905F904F903F905C
:101C50002F90089585ED8093BC008091BC0084FD99
:101C6000FCCF10928C06089540914106262F30E05B
:101C7000240F311D21323105DCF420918C062430F3
:101C8000C9F4FC0180E090E0861758F430914106D9
:101C90002191DC01A15EB94FA30FB11D2C930196D8
:101CA000F3CF80914106680F6093410680E008956C
:101CB00081E0089582E00895089581E090E03091F8
:101CC000D5072091D407321710F480E090E0919569
:101CD0008195910908958091D5079091D40789172E
:101CE00030F48F5F8093D50780E090E008958FEF08
:101CF0009FEF08958091D40790E02091D507821B33
:101D000091090895CF92DF92EF92FF920F931F9364
:101D1000CF93DF937C01262F972F8A0180918D0628
:101D2000882391F0C62FD72F6E01C40ED51ECC1577
:101D3000DD0571F06991D701ED91FC910190F08181
:101D4000E02DC7010995F3CF642F822F0E94340E36
:101D5000C801DF91CF911F910F91FF90EF90DF901D
:101D6000CF900895CF93DF931F92CDB7DEB76983ED
:101D700020918D062223D1F02091AF06203240F031
:101D800021E030E0FC013383228380E090E015C045
:101D900080918E06E82FF0E0E157F94F998190830A
:101DA0008F5F80938E068093AF0605C061E0CE0101
:101DB00001960E94340E81E090E00F90DF91CF9168
:101DC00008952F923F924F925F926F927F928F92DF
:101DD0009F92AF92BF92CF92DF92EF92FF920F93BA
:101DE0001F93CF93DF93CDB7DEB76C970FB6F89400
:101DF000DEBF0FBECDBF9C8F8B8F1B012A011887C2
:101E00000F83FE82ED82CA82DC0158964D915C916F
:101E100059974115510509F0B2C018968D919C91C2
:101E20001997681779070CF096C11A968D919C91B5
:101E30001B97481659060CF08EC1AC2CB12CCB0167
:101E4000B6E0CB9E800D911D1124181619060CF0DA
:101E500082C1C50133E0880F991F3A95E1F7840DDF
:101E6000951D181619060CF076C1AB8DBC8D5796D2
:101E70008C91811103C0203B08F02F5FAB8DBC8D8E
:101E8000ED91FC9111970680F781E02DCD012A8F0D
:101E900009952A8DB5E02B9F900111246101410124
:101EA0001B82F901E219F309FA87E9879201285F99
:101EB0003F4F3C872B873B81353049F0E985FA85D8
:101EC000E80DF91DE756FC4F4491498301C0198282
:101ED00032011201598150FF13C0AB8DBC8DED91C1
:101EE000FC91BA81B13031F40084F185E02D2F816D
:101EF000388519C00284F385E02DEF80F8841EC078
:101F0000ED81FE812F813885E217F307F1F0AB8D6B
:101F1000BC8DED91FC91BA81B13059F40084F1850A
:101F2000E02D2D813E81A301B4018B8D9C8D0995FF
:101F30000CC00284F385E02DED80FE8085019501C3
:101F4000A101B6018B8D9C8D0995E981E695E98308
:101F5000FFEF6F1A7F0A2A0C3B1C2B853C8562160B
:101F6000730609F0B7CF3B813F5F3B834FEF841A85
:101F7000940ACA0CDB1C363009F09DCFCAC0FA01A6
:101F800034969491329765917491291BCB01B7E0F7
:101F90002B9F800D911D1124FA01259134913A8BCC
:101FA000298BFC0165907490FC01329634913D833D
:101FB000319644914B873296C490319614915A8150
:101FC000523058F08C2C0C2C000C9908812F012ECB
:101FD000000C990B9C838B8304C01C821B82812C78
:101FE000912CAB8DBC8DED91FC9111970680F78102
:101FF000E02DCD010995BA81AB2EB12C8A9CC00190
:102000008B9C900D9A9C900D1124FC01E20DF31D08
:10201000F88BEF871982912C812CEC2DCC0CFF0BC7
:1020200091012E0F3F1F3A87298761013D81C30E21
:10203000D11CA6014E0F5F1F5F8B4E8BC201810F1B
:10204000911D17FD9A95998F888F5B85851608F0ED
:1020500060C0882D90E04B815C81480F591F4A9DDC
:1020600090014B9D300D5A9D300D1124D901A40DC6
:10207000B51DBE87AD87C984DA842F843888B981BD
:10208000E985BE1BBB8B288D398D280F391F3D8BF1
:102090002C8B8B898C0D2E893F89C216D30699F122
:1020A000877041F4C3010196E989FA89E60DF71DAD
:1020B00094903C0197FE20C0AB8DBC8DED91FC91BE
:1020C000BA81B13061F40084F185E02D2F8138852B
:1020D0004C895D89B6018B8D9C8D09950DC002845C
:1020E000F385E02DEF80F884850195014D855E85AF
:1020F000B1018B8D9C8D0995990CEFEFCE1ADE0AFC
:102100002A0C3B1CC6CF39814D81340F398383940F
:102110009CCFAB8DBC8DED91FC9111970288F3891A
:10212000E02DCD016C960FB6F894DEBF0FBECDBF8B
:10213000DF91CF911F910F91FF90EF90DF90CF90A3
:10214000BF90AF909F908F907F906F905F904F90D7
:102150003F902F9009946C960FB6F894DEBF0FBE97
:10216000CDBFDF91CF911F910F91FF90EF90DF9046
:10217000CF90BF90AF909F908F907F906F905F9027
:102180004F903F902F9008958EBD00000DB407FE34
:10219000FDCF8EB508950F931F93CF93DF93EC017E
:1021A00088810E94791E2FB7F8944091E5075091DD
:1021B000E6076091E7077091E8072FBF298D3A8DF8
:1021C0002115310579F42A853B858217930709F09B
:1021D000A2C081E090E09A8F898F4B8F5C8F6D8FCA
:1021E0007E8F99C02130310509F04EC02885398590
:1021F00082179307C9F48B8D9C8DAD8DBE8D481BC6
:10220000590B6A0B7B0B8E819F81092E000CAA0B48
:10221000BB0B481759076A077B0718F41A8E198EEB
:102220007AC082E090E02DC02A853B858217930713
:1022300009F071C08B8D9C8DAD8DBE8D481B590BE7
:102240006A0B7B0B8C819D81092E000CAA0BBB0BAA
:1022500084179507A607B70708F05DC081E08C8753
:10226000E989FA89309709F00995EB89FC8930975B
:1022700009F00995EF89F88D309709F0099586E006
:1022800090E09A8F898F47C022303105F1F40B8D91
:102290001C8D2D8D3E8D401B510B620B730B0A81E3
:1022A0001B81012E000C220B330B04171507260788
:1022B000370718F4ED85FE851EC02A853B858217F9
:1022C000930749F583E090E0DCCF2330310541F4FA
:1022D0002885398582179307F1F4EF85F8890BC0BB
:1022E00026303105C1F4288539858217930741F4DA
:1022F0001C86ED89FE89309709F490CF09958ECF21
:1023000081E08C87EF89F88D309729F0DF91CF91AC
:102310001F910F910994DF91CF911F910F91089513
:102320001F920F920FB60F9211242F933F934F934A
:102330005F936F937F938F939F93AF93BF93EF932D
:10234000FF938091B900887F803609F49CC068F5BE
:10235000883209F45BC090F4803109F454C038F439
:10236000882309F4F6C0883009F44DC0F6C08831DE
:1023700009F44CC0803209F45DC0EFC0803409F428
:1023800068C048F4803309F455C0883309F0E5C0CB
:1023900080938A06D8C0803509F44FC0883509F487
:1023A0005DC0883409F0D9C0D6C0883909F4C7C0E7
:1023B000A8F4883709F467C038F4883609F463C094
:1023C000803709F460C0C9C0883809F4B8C08039C2
:1023D00009F45FC0803809F0C0C05BC0803B09F4DD
:1023E00086C038F4803A09F466C0883A09F47FC0A0
:1023F000B4C0803C09F4A7C0883C09F4A4C0883B61
:1024000009F48AC0AAC08091670610C0909189061D
:1024100080918806981770F5E091890681E08E0F0B
:1024200080938906F0E0E859F94F80818093BB00E2
:1024300085EC86C080938A068EC0E091890681E093
:102440008E0F809389068091BB00F0E0E859F94F28
:10245000808390918906809188066EC0E0918906FC
:1024600081E08E0F809389068091BB00F0E0E859EF
:10247000F94F808380918B0681116DC081E080933C
:10248000660684EA61C083E080938C06109265063C
:10249000CFCF80916506803208F051C0E09165068B
:1024A00081E08E0F809365068091BB00F0E0EB5BCE
:1024B000F94F8083BDCF85EC8093BC0010928C06D1
:1024C00080916506803230F4E0916506F0E0EB5BC8
:1024D000F94F10826091650670E0E0914306F0913B
:1024E000440685E496E009951092650636C084E0BE
:1024F00080938C061092420610924106E0913F06AE
:10250000F0914006099580914106811105C081E056
:102510008093410610921F06E091420681E08E0FE3
:1025200080934206F0E0E15EF94F80818093BB002A
:102530009091420680914106981708F479CF85E87A
:102540008093BC000AC085EC8093BC0010928C067E
:1025500004C010928A060E942A0EFF91EF91BF914B
:10256000AF919F918F917F916F915F914F913F912B
:102570002F910F900FBE0F901F901895CF93CFB74C
:10258000F89480911E06811127C0E1ECF8E0849157
:10259000E3EAF8E09491E82FF0E0EE0FFF1FE95F27
:1025A000F64FA591B491EC91E92321F461E08AE022
:1025B0000E94A21E61E08AE00E94D21E8CB580615A
:1025C0008CBD8CB580648CBD61E08DE00E94D21E14
:1025D00061E08BE00E94D21E80911E068F5F809387
:1025E0001E06CFBFCF9108950E94161581E08093FB
:1025F000AB071092A4071092A3071092A60710929F
:10260000A50781E090E09093AA078093A907909393
:10261000A8078093A70766E873E087E997E00E9420
:10262000D91883E08093AB078091D8079091D907A0
:102630008A30910518F42EE230E00BC09C012A503C
:1026400031092A35310518F423E230E002C02AE1CD
:1026500030E03093A4072093A30724E130E03093C7
:10266000A6072093A5070E94641564E873E087E934
:1026700097E00E94D91881E08093AB071092A407DD
:102680001092A30788E390E09093A6078093A50794
:102690008091000590910105019731F461E873E0A4
:1026A00087E997E00E94D918809100059091010573
:1026B0000A9731F46DE773E087E997E00E94D91833
:1026C00080910005909101058436910531F468E709
:1026D00073E087E997E00E94D918809100059091F6
:1026E0000105883E934031F462E773E087E997E0A3
:1026F0000E94D9188BE390E09093A4078093A307DE
:1027000088E390E09093A6078093A50766E673E0C0
:1027100087E997E00E94D9180C9494142091AF0691
:102720009091D307213208F04AC080918C06811124
:10273000FCCF32E030938C0631E030938B063FEFD4
:1027400030938A061092890620938806AFE8B6E097
:1027500048E656E0FA013E2F341B321718F43D913B
:102760003193F9CF1092670620916706990F922B4B
:102770009093670690916606913061F41092660618
:10278000909167069093BB009091BC0093FDF8CFA9
:1027900095EC01C095EE9093BC0090918C06923020
:1027A000E1F390918A069F3F79F080918A0680320A
:1027B00041F080918A06803331F084E005C081E0E9
:1027C00003C082E001C083E010928E061092AF0633
:1027D00010928D0608959091B80791110C94C41031
:1027E00028E030E040E8E091BB07F091BC07508161
:1027F0009091C207909595239083E091B907F0914D
:10280000BA079091C107542F582319F05081952B86
:1028100003C05081909595239083E091BB07F09180
:10282000BC0750819091C207952B9083469521500B
:102830003109C9F60895CF92DF92FF920F931F934B
:10284000CF93DF931F92CDB7DEB7082F162F60E02E
:102850008091D10779830E94A21E82E10E94C41058
:10286000F12EC12E7981D72E8C2D8F19801730F43F
:10287000F60181916F010E94C410F6CF61E0809152
:10288000D1070F90DF91CF911F910F91FF90DF90B3
:10289000CF900C94A21ECF93C82F8091B3078F3F87
:1028A00059F1E091BD07F091BE0780819091C30777
:1028B000982B9083E091BF07F091C0072081909101
:1028C000C407909592239083E091BD07F091BE07D5
:1028D00020819091C3079095922390838C2F0E9422
:1028E000EB13E091BD07F091BE0790818091C30783
:1028F000892B8083CF9108958091B10791E09093C7
:102900008D068093D30710928E061092AF0660E07A
:102910008DE497E00E94B20E6C2F8DE497E00E9448
:10292000B20ECF910C948E13EF92FF920F931F93E0
:10293000CF93DF9381E20E944B1480E00E944B14FE
:102940008FE70E944B1482E20E944B1480E00E94A9
:102950004B1487E00E944B148091B3078F3F79F1AD
:10296000E091BD07F091BE0790818091C307892B4C
:102970008083E091BF07F091C00790818091C407E8
:10298000892B8083E091BD07F091BE0790818091F3
:10299000C307809589238083C0E0D1E089910E949C
:1029A000EB1385E0C030D807C9F7E091BD07F0917F
:1029B000BE0790818091C307892B808330C0F0903F
:1029C000B8008CE08093B800C0E0D1E0EE24E3943E
:1029D0008091B107E0928D068093D30710928E0606
:1029E0001092AF0660E48DE497E00E94B20E00E022
:1029F00010E0FE01E00FF11F60818DE497E00E947E
:102A0000B20E0F5F1F4F0031110599F70E948E1310
:102A1000609685E0C030D807D9F6F092B800DF9113
:102A2000CF911F910F91FF90EF90089580E094E077
:102A3000E0E0F1E0DF019C011D9221503040E1F720
:102A400008950F931F93CF93DF93082F162FC5EC94
:102A5000D7E060E08C850E94A21E802F8E770E94B6
:102A6000C410812F0E94C41061E08C85DF91CF914A
:102A70001F910F910C94A21E0F931F93CF93C82FF9
:102A800005EC17E060E0F80184850E94A21E8C2FFF
:102A90008E7780680E94C41080E00E94C410C82F06
:102AA00061E0F80184850E94A21E8C2FCF911F91B6
:102AB0000F910895CF93C82F0E943C15682F60682E
:102AC0008C2FCF910C942115AC0160E070E02AE0CE
:102AD00087E997E00C941219EF92FF920F931F93DE
:102AE000CF93DF937C01C62F8A0160E082E00E94D1
:102AF000211564E08AE00E94211584E10E945A15A4
:102B0000B7018C2F0E941B1463E082E00E94211504
:102B1000C8E8D3E18AE00E943C1582FD04C02197F9
:102B2000C9F784E00FC060E082E00E94211584E4D0
:102B30000E943C15F801808382E40E943C15F80154
:102B4000818381E0DF91CF911F910F91FF90EF90F2
:102B500008952F923F924F925F926F927F928F9241
:102B60009F92AF92BF92CF92DF92EF92FF920F931C
:102B70001F93CF93DF9300D01F92CDB7DEB7982E6F
:102B8000762E2A01C114D10419F0F601608101C02A
:102B900060E0662EF0E1AF9E600C112460E082E000
:102BA0002B830E9421156FE788E00E94211584E1A4
:102BB0000E945A15B2012B81822F0E941B14662D90
:102BC0008AE10E942115692D82E00E9421158CE086
:102BD000981203C08AE10E945A1590ED492E97E0A1
:102BE000592E88E00E943C15982F972139F480FDDA
:102BF000A2C0E1E04E1A5108A1F79DC08CE00E94EE
:102C00003C15382E837109F098C00115110509F49F
:102C10005FC0E114F10409F45BC084E10E943C153B
:102C2000982EF7018081891508F489C09082992037
:102C300009F444C060E08091D1070E94A21E9A94DA
:102C400082E90E94C410202E380144244394512C60
:102C5000862D8219891528F581111AC0AA20C1F084
:102C60008A2DB12C883048F49201082E01C0220F21
:102C70000A94EAF7B22A8F5FF5CF82E90E94C41066
:102C80002B2D2095F801908192238B21892B04C054
:102C900082E90E94C410F3018083FFEF6F1A7F0A5C
:102CA000D7CF5801A90CB11C80E00E94C410F501D7
:102CB000808361E08091D1070E94A21E88E10E947A
:102CC0003C158770B82EC114D10411F0F601808331
:102CD00033FC37C001151105B1F1E114F10499F18C
:102CE000882089F1F7016081613021F4F4E0BF129E
:102CF00003C01FC0623010F488E026C0B110FCCFC2
:102D00006250AE014F5F5F4FC8010E946C15813069
:102D1000D9F4F7018081080F111DF80132979081D5
:102D200089819813E9CF319690818A819813E4CFF5
:102D30000AC089E009C084E007C082E005C085E0E0
:102D400003C083E001C081E00F900F900F90DF91EE
:102D5000CF911F910F91FF90EF90DF90CF90BF9098
:102D6000AF909F908F907F906F905F904F903F902B
:102D70002F9008951F93CF93DF931F92CDB7DEB7A7
:102D8000182F69830E943C15698160956823812F03
:102D90000F90DF91CF911F910C9421152F923F92AC
:102DA0004F925F926F927F928F929F92AF92BF925B
:102DB000CF92DF92EF92FF920F931F93CF93DF9307
:102DC000CDB7DEB72C970FB6F894DEBF0FBECDBFE0
:102DD00060E88CE10E94BA169924939444244394A9
:102DE000512C22E0921651F033E0931661F081E00D
:102DF0009812ECC083E98983B12C09C085E98983E5
:102E000053E0B52E04C087E9898346E0B42E312C07
:102E100033E0232E90E239121DC0E0E7EA839C8163
:102E20008B8189279D8189279E8189278F83AE0188
:102E3000485F5F4F67E0CE0101960E946C158130BC
:102E400009F0C9C01B862A869E01295F3F4F3901C0
:102E500029E01EC0932D97709B87432D459545957E
:102E6000459582E0840F292F30E1839F200D1124A6
:102E70002A8321E0911101C020E0280F6624639489
:102E8000712C6C0E7D1E680E711C87E0841B8A8776
:102E9000AB846A2D6295607F6A0D8AE12C870E945F
:102EA0002115812CCE010B966C01FE013A967F0113
:102EB00083012C85AE014F5F5F4F60E38CE00E9481
:102EC000A915833091F58CE10E943C1585FD7CC0ED
:102ED0008F7109F480E2482F50E0632D330C770B9B
:102EE000641775070CF072C0382ECA0101978770FD
:102EF0009927242F25952595259541E0420F21E01E
:102F0000009709F420E0240FE1E0F0E0EC0FFD1F52
:102F1000E20FF11D920102C0220F331F8A95E2F7E2
:102F2000C9019081892B808375CF813009F053C00E
:102F300030E2331619F020E2322E6FCF8B818838C1
:102F400019F443E023E002C042E024E080E090E096
:102F50006B2D70E0FC01E60FF71FEB53F84F542F79
:102F6000580FA1E0B0E0AC0FBD1FA50FB11D5C91E3
:102F700051830196821770F38A85833049F58B85DA
:102F8000811126C0AE014D5F5F4F61E0C3010E9419
:102F90006C15813001F59B81F301818198131AC072
:102FA0009C818281981316C0808182FF02C0939415
:102FB00018CF8093D007892D880F382F390D3F5FA8
:102FC0003093C50781E007C083E005C086E003C0F9
:102FD00082E001C088E02C960FB6F894DEBF0FBEE9
:102FE000CDBFDF91CF911F910F91FF90EF90DF90B8
:102FF000CF90BF90AF909F908F907F906F905F9099
:103000004F903F902F900895CF93DF93BC0180EBBA
:1030100096E00E94FD18EC0164E775E080EB96E015
:103020000E94FD188C0F9D1FDF91CF910895CF92C4
:10303000DF92EF92FF920F931F93CF93DF936C0178
:103040007A018B01C0E0D0E0CE15DF0589F0D80110
:103050006D918D01D601ED91FC910190F081E02DF3
:10306000C6010995892B11F47E0102C02196ECCF8F
:10307000C701DF91CF911F910F91FF90EF90DF90EB
:10308000CF900895FC01918D828D981761F0828D0B
:10309000DF01A80FB11D5D968C91928D9F5F9F738C
:1030A000928F90E008958FEF9FEF0895FC01918D2E
:1030B000828D981731F0828DE80FF11D858D90E09B
:1030C00008958FEF9FEF08950E94162680EB96E0FB
:1030D0000E94B31921E0892B09F420E0822F089582
:1030E000EF92FF920F931F93CF93DF93EC0181E058
:1030F000888F9B8D8C8D981305C0E889F989808114
:1031000085FD24C0F62E0B8D10E00F5F1F4F0F734F
:103110001127E02E8C8DE8120CC00FB607FCFACFF9
:10312000E889F989808185FFF5CFCE010E94581E7C
:10313000F1CF8B8DFE01E80FF11DE35AFF4FF082B6
:103140000B8FEA89FB898081806207C0EE89FF8945
:103150006083E889F98980818064808381E090E0E0
:10316000DF91CF911F910F91FF90EF900895CF9332
:10317000DF93EC01888D8823C9F0EA89FB8980817F
:1031800085FD05C0A889B9898C9186FD0FC00FB651
:1031900007FCF5CF808185FFF2CFA889B9898C9192
:1031A00085FFEDCFCE010E94581EE7CFDF91CF9172
:1031B0000895EF92FF920F931F93CF93DF938C01AB
:1031C0007B01C0E0D0E0F701EC0FFD1F64916623A6
:1031D00061F0D801ED91FC910190F081E02DC801E2
:1031E0000995892B11F02196EECFCE01DF91CF9179
:1031F0001F910F91FF90EF9008956115710579F07F
:10320000FB0101900020E9F73197AF01461B570BF6
:10321000DC01ED91FC910280F381E02D099480E0C6
:1032200090E008954F925F926F927F92EF92FF929B
:103230000F931F93CF93DF93CDB7DEB7A1970FB650
:10324000F894DEBF0FBECDBF7C01FA01CB0119A2FD
:10325000223008F42AE08E010F5D1F4F422E512CC0
:10326000612C712CBF01A30192010E94EE25F9018E
:10327000CA01015011096A3014F4605D01C0695C33
:10328000D8016C93232B242B252B61F7B801C701A0
:103290000E94FD18A1960FB6F894DEBF0FBECDBFF9
:1032A000DF91CF911F910F91FF90EF907F906F90E2
:1032B0005F904F9008951F920F920FB60F921124B6
:1032C0002F933F934F935F936F937F938F939F932E
:1032D000AF93BF93EF93FF9380EB96E00E94581E4D
:1032E000FF91EF91BF91AF919F918F917F916F91DE
:1032F0005F914F913F912F910F900FBE0F901F90B4
:1033000018951F920F920FB60F9211242F938F933F
:103310009F93EF93FF93E091C006F091C1068081E7
:10332000E091C606F091C70682FD12C0908180919F
:10333000C9068F5F8F732091CA06821751F0E09102
:10334000C906F0E0E055F94F958F8093C90601C09A
:103350008081FF91EF919F918F912F910F900FBEE0
:103360000F901F901895FC01918D228D892F90E070
:10337000805C9F4F821B91098F739927089580E08D
:1033800090E0892B29F00E94661881110C940000AE
:103390000895833081F028F4813099F08230A1F0D3
:1033A00008958730A9F08830B9F08430D1F4809145
:1033B00080008F7D03C0809180008F778093800094
:1033C000089584B58F7702C084B58F7D84BD08953C
:1033D0008091B0008F7703C08091B0008F7D809383
:1033E000B00008953FB7F8948091EA079091EB07F9
:1033F000A091EC07B091ED0726B5A89B05C02F3F23
:1034000019F00196A11DB11D3FBFBA2FA92F982F0A
:103410008827820F911DA11DB11DBC01CD0143E084
:10342000660F771F881F991F4A95D1F708950F934C
:103430001F93CF93DF93DC0155968C915597823083
:1034400071F0833009F1813009F08CC01496ED9150
:10345000FC911597E41BF50BE21BF30B20C01496AF
:10346000ED91FC911597CF01861B970BBC01615024
:1034700071091696ED91FC911797CF01841B950B5E
:10348000AC01421B530B6EC01696ED91FC91179741
:10349000CF01861B970BBC0161507109FA0177FDC2
:1034A0001BC116968D919C911797681779070CF0A0
:1034B00013C1F7FF04C02E0F3F1FE0E0F0E01496A9
:1034C0008D919C911597AF01420F531F841795075B
:1034D0001CF49C012E1B3F0B121613060CF0FCC0B3
:1034E000CB0177FD079643E0959587954A95E1F7DF
:1034F0009695982F882797958795E80FF91FE050A4
:10350000FF4F6770772781E090E001C0880F6A95D0
:10351000EAF7482F0130110541F088F0023011051B
:1035200009F0DAC02E0F3F1F15C02E0F3F1FE21704
:10353000F30709F4D1C08081842B8193F8CF809563
:103540002E0F3F1FE217F30709F4C6C0908198239E
:103550009193F8CFE217F30709F4BEC08081842766
:103560008193F8CF77FDB8C014968D919C911597F3
:10357000681779070CF0B0C057FF04C0240F351F3F
:1035800040E050E016968D919C911797FA01E20F5A
:10359000F31F8E179F071CF49C01241B350B12167A
:1035A00013060CF099C0A22F842F869586958695D8
:1035B00090E8899F600D711D1124FB01E050FF4FC1
:1035C0004770A9F198E0941B492F50E0EA01CE5AC8
:1035D000DA4F8881291790F4421B51092FEF30E010
:1035E00002C0359527954A95E2F7822301301105EF
:1035F00041F068F00230110589F06EC0013011050C
:1036000019F42081822B0CC00130110520F4809523
:103610002081822305C00230110531F420818227E8
:103620008083A91708F458C0A91BE058FF4FA830A1
:1036300048F10230110559F4EF018A2F98819095D5
:103640009883C058DF4F88508830C0F730C081E081
:103650000130110509F080E08195EF019A2F8883F0
:10366000C058DF4F98509830D0F788EF8A0F869572
:103670008695869590E8899FE00DF11D1124E0580C
:10368000FF4FA770AA2341F1B0E0A65BBA4F8C911F
:103690000130110529F038F002301105D1F01CC0BD
:1036A0009081892B18C080959081892314C088EF60
:1036B0008A0F86958695869590E8899FE00DF11D85
:1036C0001124E058FF4FA77039F0B0E0A65BBA4F65
:1036D0008C91908189278083DF91CF911F910F91E9
:1036E00008950F931F93CF93DF93DC01FB01559651
:1036F0008C915597823081F0833019F1813051F5EA
:1037000014968D919C911597BC01641B750BAB01B0
:1037100041505109BF0181C014966D917C9115975C
:10372000CB018E1B9F0BFC0116968D919C911797D8
:10373000BC01641B750BAB0141505109E21BF30B3B
:1037400009C016966D917C9117976E1B7F0B621BBB
:10375000730B63C057FD1CC116968D919C911797F2
:10376000481759070CF014C1F7FF04C02E0F3F1F74
:10377000E0E0F0E014968D919C911597BF01620FE7
:10378000731F861797071CF49C012E1B3F0B121604
:1037900013060CF0FDC0CA0157FD079663E095952E
:1037A00087956A95E1F79695982F8827979587953D
:1037B000E80FF91FE050FF4F4770552781E090E078
:1037C00001C0880F4A95EAF7482F0130110541F0F2
:1037D00088F00230110509F0DBC02E0F3F1F15C025
:1037E0002E0F3F1FE217F30709F4D2C08081842B0C
:1037F0008193F8CF80952E0F3F1FE217F30709F44E
:10380000C7C0908198239193F8CFE217F30709F48A
:10381000BFC0808184278193F8CF57FDB9C014962B
:103820008D919C911597481759070CF0B1C077FFFF
:1038300004C0260F371F60E070E016968D919C91B2
:103840001797FB01E20FF31F8E179F071CF49C01D3
:10385000261B370B121613060CF09AC0A22F862FC8
:1038600086958695869590E8899F400D511D112477
:10387000FA01E050FF4F6770A9F198E0961B492FBD
:1038800050E0EA01CE5ADA4F8881291790F4421BA2
:1038900051092FEF30E002C0359527954A95E2F7A0
:1038A00082230130110541F068F00230110589F0E2
:1038B0006FC00130110519F42081822B0CC001303A
:1038C000110520F480952081822305C00230110566
:1038D00031F4208182278083A91708F459C0A91BDD
:1038E000E058FF4FA83048F10230110559F4EF01BC
:1038F0008A2F988190959883C058DF4F88508830E0
:10390000C0F731C081E00130110509F080E08195F8
:10391000EF019A2F8883C058DF4F98509830D0F726
:1039200088EF8A0F86958695869560E8869FE00DDC
:10393000F11D1124E058FF4FA770AA2349F1B0E010
:10394000A65BBA4F8C910130110529F038F0023096
:103950001105D9F01DC09081892B03C080959081FD
:103960008923808315C088EF8A0F86958695869572
:1039700070E8879FE00DF11D1124E058FF4FA770FC
:1039800039F0B0E0A65BBA4F8C9190818927E9CFDE
:10399000DF91CF911F910F910895FC0177FD9AC09F
:1039A00080859185681779070CF094C057FD92C007
:1039B00082859385481759070CF08CC08589823021
:1039C00009F07CC084819581DC01A61BB70BBD0189
:1039D0006150710986819781FC01E41BF50BAF01F1
:1039E000415051090AC0813041F484819581841B82
:1039F000950BAB01BC01615071092130310529F0F3
:103A000008F122303105E1F10895FA0157FD3796AA
:103A1000A3E0F595E795AA95E1F7F695FE2FEE2739
:103A2000F795E7956E0F7F1FFB01E050FF4F477042
:103A3000552781E090E001C0880F4A95EAF7908110
:103A4000892B3AC0FA0157FD379623E0F595E795A3
:103A50002A95E1F7F695FE2FEE27F795E7956E0F7D
:103A60007F1FFB01E050FF4F4770552781E090E03A
:103A700001C0880F4A95EAF78095908189231CC080
:103A8000FA0157FD379683E0F595E7958A95E1F7BA
:103A9000F695FE2FEE27F795E7956E0F7F1FFB013A
:103AA000E050FF4F4770552781E090E001C0880F3C
:103AB0004A95EAF79081892780830895833009F039
:103AC00092CF86819781861B970BBA01AC0141503A
:103AD000510993CF08950895FC016370658B84812B
:103AE000958126813781613039F0633029F09187E3
:103AF000808733872287089531872087938782873D
:103B00000895AF92BF92CF92EF92FF920F931F93BF
:103B1000CF93DF93EC01262F888D998D009709F0C4
:103B200042C06A3069F42C898E859F8538E0239FD6
:103B3000800D911D11249F878E871D861C86ACC029
:103B40006D3009F4A9C08E898823C1F03C898C8529
:103B50009D8546E0349F800D911D1124488559852F
:103B6000841795075CF01D861C868E859F85E8E08E
:103B70003E9F800D911D11249F878E87EA88FB88C8
:103B8000088919894E855F856C857D85CC88CE0135
:103B90000E94E10E2C898C859D85F6E02F9F800D7B
:103BA000911D112441C06A3079F41D861C862C8930
:103BB000FC013696E4918E859F852E9F800D911D88
:103BC00011249F878E8768C06D3009F465C0AC01F1
:103BD0004C5F5F4FFA013491631708F45DC0319672
:103BE000E491E61708F458C0FA014491362F341BCB
:103BF000FC013296A590B490F7E03F9FA00CB11C59
:103C00001124F501329634913196E491332311F069
:103C1000E1110DC0F5013496E4912C898C859D85C8
:103C2000E29F800D911D11249D878C8735C0F50181
:103C3000359644915E89552311F16C89E32FF0E0AC
:103C4000E40FF11D47FDFA956E9FD0016F9FB00DF7
:103C500011244C855D854A0F5B1FE885F9854E1759
:103C60005F076CF01D861C86FC013696E4918E85FC
:103C70009F856E9F800D911D11249F878E87EA88F6
:103C8000FB88088919894E855F856C857D85CC8880
:103C9000CE010E94E10EBECF81E090E0DF91CF9196
:103CA0001F910F91FF90EF90CF90BF90AF9008952C
:103CB000FC01848DDF01A80FB11DA35ABF4F2C91C9
:103CC000848D90E001968F739927848FA689B78998
:103CD0002C93A089B1898C9180648C93938D848D71
:103CE000981306C00288F389E02D80818F7D808340
:103CF0000895CF93DF93282F30E0F901E55EF64F6A
:103D00008491F901E756F74FD491F901E954F74F3F
:103D1000C491CC2391F081110E94C919EC2FF0E0DD
:103D2000EE0FFF1FEF5EF64FA591B491EC91ED23DE
:103D300081E090E021F480E002C080E090E0DF913B
:103D4000CF9108951F93CF93DF93282F30E0F9018F
:103D5000E55EF64F8491F901E756F74FD491F901EA
:103D6000E954F74FC491CC23C9F0162F81110E945A
:103D7000C919EC2FF0E0EE0FFF1FE355F74FA591A7
:103D8000B4918FB7F894111105C09C91ED2FE09577
:103D9000E92302C0EC91ED2BEC938FBFDF91CF9123
:103DA0001F910895CF93DF9390E0FC01E756F74F02
:103DB0002491FC01E954F74F8491882361F190E04C
:103DC000880F991FFC01E95FF64FC591D491FC0162
:103DD000E355F74FA591B491611109C09FB7F894CD
:103DE0008881209582238883EC912E230BC062303A
:103DF00061F49FB7F8943881822F8095832388835C
:103E0000EC912E2B2C939FBF06C08FB7F894E881BE
:103E10002E2B28838FBFDF91CF9108958F929F9291
:103E2000AF92BF92CF92DF92EF92FF926B017C0133
:103E30000E94F2194B015C01C114D104E104F104A8
:103E4000F1F00E94F219DC01CB0188199909AA0945
:103E5000BB09883E9340A105B10570F321E0C21A69
:103E6000D108E108F10888EE880E83E0981EA11CB5
:103E7000B11CC114D104E104F10419F7DDCFFF90A6
:103E8000EF90DF90CF90BF90AF909F908F9008956C
:103E90001F920F920FB60F9211242F933F938F937F
:103EA0009F93AF93BF938091E5079091E607A09110
:103EB000E707B091E8073091E90726E0230F2D3797
:103EC00020F40296A11DB11D05C029E8230F039619
:103ED000A11DB11D2093E9078093E5079093E607A4
:103EE000A093E707B093E8078091EA079091EB076A
:103EF000A091EC07B091ED070196A11DB11D809333
:103F0000EA079093EB07A093EC07B093ED07BF91FE
:103F1000AF919F918F913F912F910F900FBE0F9076
:103F20001F9018958F92AF92CF92DF92EF92FF92EF
:103F30000F931F93CF93DF93CDB7DEB72C970FB6B8
:103F4000F894DEBF0FBECDBF90E699838A83DE0171
:103F50001396E0E1F8E086E08E0F91919D938E1329
:103F6000FCCF8091C60789878091C7078A87809197
:103F7000C8078B878091C9078C87812CA12CC12C05
:103F8000D12CE12CF12C00E010E02CE0AE014F5FD1
:103F90005F4F60E18EE00E94A9152C960FB6F89451
:103FA000DEBF0FBECDBFDF91CF911F910F91FF906C
:103FB000EF90DF90CF90AF908F9008958F92AF9257
:103FC000CF92DF92EF92FF920F931F93CF93DF93E5
:103FD000CDB7DEB764970FB6F894DEBF0FBECDBF86
:103FE000162FE62EF12CA701BC01CE0101960E94EE
:103FF0001B2641E050E04C0F5D1F4E0D5F1D612FF1
:10400000CE0101960E946C15813011F582E18C8BF6
:104010001B8A22E0210F812CA12CCE0143966C013A
:1040200001967C018E010F5F1F4FA80160E38CE0B9
:104030000E94A915813061F48C89813041F49B89FB
:10404000943029F499819A3019F089E001C082E016
:1040500064960FB6F894DEBF0FBECDBFDF91CF914F
:104060001F910F91FF90EF90DF90CF90AF908F90C6
:104070000895CF92DF92EF92FF92CF93DF936C017E
:10408000990FEE08FF08F7FE21C0E091B006F0910D
:10409000B1060190F081E02D6DE280EB96E009958C
:1040A000EC0144275527BA014C195D096E097F09B7
:1040B0002AE080EB96E00E9412198C0F9D1FDF9181
:1040C000CF91FF90EF90DF90CF9008952AE0B70155
:1040D000A60180EB96E0DF91CF91FF90EF90DF900B
:1040E000CF900C941219CF93DF93BC0180EB96E034
:1040F0000E94D918EC0164E775E080EB96E00E941D
:10410000FD188C0F9D1FDF91CF910895EF92FF92C4
:104110000F931F93CF93DF9300D0CDB7DEB77C0111
:10412000F7FC03968C01036083E0E816F1047CF051
:10413000C701019683709927892B49F4C7010E9412
:10414000392087E795E00E94041882E04FC0C7013C
:104150000E9439208CE895E00E940418802F0E946C
:10416000921F182F8130C1F06EE975E080EB96E068
:104170000E94FD181150193048F4E12FF0E0EE0FC5
:10418000FF1FE65AFA4F8081918102C088E19AE0D0
:104190000E94732083E02AC080EA8983EA8262E079
:1041A000CE0101960E94DE1F182F813031F460E1AC
:1041B00080E098E00E94DE1F182F1130C9F06AEBF2
:1041C00075E080EB96E00E94FD181150193048F41C
:1041D000E12FF0E0EE0FFF1FE65AFA4F8081918148
:1041E00002C088E19AE00E94732084E090E004C05D
:1041F00082ED95E00E9404180F900F90DF91CF910F
:104200001F910F91FF90EF9008958F92AF92CF92F0
:10421000DF92EF92FF920F931F93CF93DF931F9242
:10422000CDB7DEB7082F282F392F37FF02C02D5FFB
:104230003F4F822F83600E94921F182F8130C1F060
:1042400064EE75E080EB96E00E94FD181150193085
:1042500048F4E12FF0E0EE0FFF1FE65AFA4F80819D
:10426000918102C088E19AE00E94732083E03AC005
:1042700082E1898380E38093EE070093EF0740EFAC
:1042800057E062E08EEE97E00E946C15813069F590
:1042900088248394A12CC12CD12CCE0101967C01C1
:1042A0000EEE17E024E0A80160E38CE00E94A9155F
:1042B000182F8130C9F067E076E080EB96E00E942D
:1042C000FD181150193048F4E12FF0E0EE0FFF1FF8
:1042D000E65AFA4F8081918102C088E19AE00E94FB
:1042E000732084E090E003C002C0182FE4CF0F9049
:1042F000DF91CF911F910F91FF90EF90DF90CF90C2
:10430000AF908F900895CF93DF93AC0160E070E0A1
:104310002AE080EB96E00E941219EC0164E775E058
:1043200080EB96E00E94FD188C0F9D1FDF91CF91CE
:1043300008958F92AF92CF92DF92EF92FF920F93F8
:104340001F93CF93DF9300D000D01F92CDB7DEB77D
:1043500082E08D8386E28C8360E88CE10E94BA164D
:1043600087E08B83812CA12CCE0103966C010296F1
:104370007C018E010F5F1F4F21E0AE014C5F5F4F4C
:1043800060E38CE00E94A915813039F48D81823080
:1043900019F48B81882331F082E091E0833019F0A9
:1043A00090E001C091E0892F0F900F900F900F9037
:1043B0000F90DF91CF911F910F91FF90EF90DF90C1
:1043C000CF90AF908F900895AF92BF92CF92DF922F
:1043D000EF92FF920F931F93CF93DF93E0EBF6E002
:1043E0001382128288EE93E0A0E0B0E0848395838C
:1043F000A683B78326E035E03183208325EC30E0C7
:104400003587248724EC30E03787268720EC30E09E
:10441000318B208B21EC30E0338B228B22EC30E08F
:10442000358B248B26EC30E0378B268B118E128E49
:10443000138E148EEDE4F7E0138212828483958349
:10444000A683B78386E195E091838083E5ECF7E06E
:104450008AE0848785E08587E7E9F7E013821282A6
:1044600020E830E03583248380E490E097838683DE
:104470003187208793878287158A15861486178649
:10448000168681E0848B2FEF3FEF338B228B318BAD
:10449000208B868B178A118E108E86E295E0918391
:1044A00080838FEF848F80A3868F858F84E0878FB2
:1044B000C8E7D7E082E3A82EB12CBF82AE828FE09E
:1044C00090E0998388839CE2C92EDD24D394DB821B
:1044D000CA8228EEE22E23E0F22EFD82EC821A8EB2
:1044E000198E1C8601E010E0198708871B861A8642
:1044F00062E00E94D21E1E861D86188A1F861A8AB6
:10450000198A1C8A1B8A1E8A1D8A188E1F8AC9E571
:10451000D7E0BF82AE8280E190E099838883DB821E
:10452000CA82FD82EC821A8E198E1C861987088732
:104530001B861A8662E00E94D21E1E861D86188A7D
:104540001F861A8A198A1C8A1B8A1E8A1D8A188E3F
:104550001F8ADF91CF911F910F91FF90EF90DF9015
:10456000CF90BF90AF900895789484B5826084BD59
:1045700084B5816084BD85B5826085BD85B5816067
:1045800085BD80916E00816080936E0010928100E5
:1045900080918100826080938100809181008160A0
:1045A0008093810080918000816080938000809161
:1045B000B10084608093B1008091B00081608093ED
:1045C000B00080917A00846080937A0080917A00B4
:1045D000826080937A0080917A008E7F80937A0047
:1045E00080917A00806880937A001092C100E091F7
:1045F000C006F091C10692E09083E091BC06F09174
:10460000BD061082E091BE06F091BF0687E680836A
:104610001092C806E091C406F091C50686E080833A
:10462000E091C206F091C306808180618083E091B1
:10463000C206F091C306808188608083E091C20643
:10464000F091C306808180688083E091C206F0917A
:10465000C30680818F7D80839093B2078CE3809323
:10466000B1078091B3078F3F09F48BC061E080915F
:10467000B5070E94D21E61E08091B7070E94D21E4A
:104680008091B707082E000C990BFC01E954F74FF5
:10469000E491F0E0EE0FFF1FE355F74F25913491C1
:1046A0003093BE072093BD07FC01E756F74FE49116
:1046B000E093C3078091B507082E000C990BFC010D
:1046C000E954F74FE491F0E0EE0FFF1FE355F74F89
:1046D000259134913093C0072093BF07FC01E75622
:1046E000F74FE491E093C4078091B80781113EC071
:1046F00061E08091B3070E94D21E61E08091B4070F
:104700000E94D21E8091B407082E000C990BFC0168
:10471000E954F74FE491F0E0EE0FFF1FE355F74F38
:10472000259134913093BC072093BB07FC01E756D9
:10473000F74FE491E093C2078091B307082E000C75
:10474000990BFC01E954F74FE491F0E0EE0FFF1FE5
:10475000E355F74F259134913093BA072093B90769
:10476000FC01E756F74FE491E093C1078091B80749
:10477000882371F10E94BE1280E58CBD81E08DBD61
:1047800027C01092D5071092D40710928E0610926F
:10479000AF0610928C0681E080938B06109266061D
:1047A00061E082E10E94A21E61E083E10E94A21EFC
:1047B0008091B9008E7F8093B9008091B9008D7F80
:1047C0008093B90080E28093B80085E48093BC00B8
:1047D0008091B60787FD1EC061E00E94D21E61E095
:1047E0008091B6070E94A21E61E070E080E090E038
:1047F0000E940E1F60E08091B6070E94A21E6AE030
:1048000070E080E090E00E940E1F61E08091B607AA
:104810000E94A21E8EEA0E944B1485ED0E944B144A
:1048200080E80E944B1488EA0E944B148FE30E9498
:104830004B1483ED0E944B1480E00E944B1480E4E3
:104840000E944B148DE80E944B1484E10E944B148B
:1048500080E20E944B1480E00E944B1481EA0E9487
:104860004B1488EC0E944B148AED0E944B1482E199
:104870000E944B1481E80E944B148FEC0E944B1451
:1048800089ED0E944B1481EF0E944B148BED0E9426
:104890004B1480E40E944B1484EA0E944B1486EA75
:1048A0000E944B148EE20E944B148FEA0E944B141C
:1048B0000E94060A0E94BE1261E08091D1070E9408
:1048C000D21E61E08091D1070E94A21E61E080911A
:1048D000D2070E94D21E8CB58F7D8CBD8CB5837F94
:1048E0008CBD8091D2070E94791E892B61F461E012
:1048F0008091D2070E94A21E62E370E080E090E007
:104900000E940E1F0FC06FE082E00E94211562E33B
:1049100070E080E090E00E940E1F82E00E943C1553
:1049200084FDFBCF60E884E50E94211569EA86E5F5
:104930000E94211563E088E50E94211568EE8AE552
:104940000E94211560E48AE20E9421156DE382E253
:104950000E94211588E20E943C15982F9370933095
:1049600029F0682F636088E20E9421158FEF809301
:104970001008809311088093120880931308809385
:104980001408809315081092E1071092E007109226
:10499000DF071092DE071092DD071092DC071092FD
:1049A000DB071092DA071092D9071092D80784EE2D
:1049B00099E0909386078093850787E69AE0909325
:1049C0008C0780938B0788E798E090936707809324
:1049D00066078BE398E090936D0780936C0711E076
:1049E000C1E0D0E08091E407811111C00E949921BB
:1049F000882309F4EDC00E94CE16813009F0E8C08A
:104A00009091D00792FD03C0983009F4E4C08091E2
:104A1000E307882341F088E797E00E94CB1089E5FF
:104A200097E00E94CB108091E407882391F1809158
:104A3000E307882371F168E080E10E94BA160E94C2
:104A400099210E949921811124C01092E3071092AC
:104A5000E2071092E4071092E1071092E00710922B
:104A6000DF071092DE071092DD071092DC0710922C
:104A7000DB071092DA071092D9071092D8070E942C
:104A8000060A1092D7071092D607D0930105C0935B
:104A900000058091E40781119BC08091E307882382
:104AA00009F496C08CE390E00E9405218091EE0706
:104AB00090E0982F88272091EF07822B9093E107B1
:104AC0008093E0078091F00790E0982F882720914D
:104AD000F107822B9093DF078093DE078091F20726
:104AE00090E0982F88272091F307822B9093DD0781
:104AF0008093DC078091F40790E0982F882720911D
:104B0000F507822B9093DB078093DA078DE390E023
:104B10000E9405218091EE0790E0982F8827209130
:104B2000EF07822B9093D9078093D80786EF98E000
:104B30000E94732061EF78E080EB96E00E94D91824
:104B40008091E0079091E1070E94832166EE78E072
:104B500080EB96E00E94D9188091DE079091DF07E4
:104B60000E9483216DED78E080EB96E00E94D918D9
:104B70008091DC079091DD070E94832165ED78E04C
:104B800080EB96E00E94D9188091DA079091DB07BC
:104B90000E9483216BEC78E080EB96E00E94D918AC
:104BA0008091D8079091D9070E94832186E795E0EC
:104BB0000E9404181093E4070E9404091092D7077A
:104BC0001092D6078091E207811102C01093E2078C
:104BD0000E94BF1907CF8093E30719CFA1E21A2ED5
:104BE000AA1BBB1BFD010DC0AA1FBB1FEE1FFF1F91
:104BF000A217B307E407F50720F0A21BB30BE40BE1
:104C0000F50B661F771F881F991F1A9469F7609527
:104C10007095809590959B01AC01BD01CF010895E1
:104C2000EE0FFF1F0590F491E02D099481E090E0D4
:104C3000F8940C942426FB01DC0102C001900D9233
:0C4C400041505040D8F70895F894FFCF81
:104C4C000000000000000000000000000000000058
:104C5C000000000000000000000000000000000048
:104C6C000000000000000000000000000000000038
:104C7C0000000000000000000000000000000080A8
:104C8C008080000000000000000000000000000018
:104C9C00008080C0C0000000000000000000000088
:104CAC0000000000000000000000000000000000F8
:104CBC0000000000000000000000000000000000E8
:104CCC0000000000000000000000000000000000D8
:104CDC000000000080C0E0F0F8FCF8E000000000EC
:104CEC000000000000000000000000000080808038
:104CFC00808000808000000000808080808000FF29
:104D0C00FFFF000000008080808000008080000099
:104D1C0080FFFF8080008080008080808000808009
:104D2C000000000000808000008C8E84000080F861
:104D3C00F8F88000000000000000000000000000F7
:104D4C00F0F0F0F0F0F0F0F0F0F0F0F0E0E0C08017
:104D5C0000E0FCFEFFFFFF7FFFFFFFFFFF000000F6
:104D6C000000000000000000000000FEFFC7010171
:104D7C00010183FFFF00007CFEC70101010183FFDD
:104D8C00FFFF0038FEC78301010183C7FFFF00004E
:104D9C0001FFFF010100FFFF0701010100007FFF80
:104DAC0080000000FFFF7F0000FFFFFF000001FFFD
:104DBC00FFFF0100000000000000000000000000E8
:104DCC00030F3F7F7FFFFFFFFFFFFFFFE7C7C78F8B
:104DDC008F9FBFFFFFC3C0F0FFFFFFFFFFFCFCFC7A
:104DEC00FCFCFCFCFCF8F8F0F0E0C0000103030351
:104DFC00030301030300000000010303030301018B
:104E0C00030100000001030303030101030300007D
:104E1C000003030000000303000000000000000179
:104E2C00030303030301000000010301000000035E
:104E3C000301000000000000000000000000000062
:104E4C0000000080C0E0F0F9FFFFFFFFFF3F1F0FE5
:104E5C0087C7F7FFFF1F1F3DFCF8F8F8F87C7DFFB4
:104E6C00FFFFFFFFFFFFFF7F3F0F07003030000009
:104E7C000000000000000000000000000000000026
:104E8C0000000000FEFEFC0000000000000000001E
:104E9C0000000000000000000000000000E0C00066
:104EAC000000000000000000000030300000000096
:104EBC0000000000000000000000000000000000E6
:104ECC0000C0FEFFFFFFFFFFFFFFFFFF7F7F3F1FC5
:104EDC000F071F7FFFFFF8F8FFFFFFFFFFFEF8E053
:104EEC00000000010000000000000000FEFE0000B9
:104EFC0000FCFEFC0C06060EFCF80000F0F81C0E84
:104F0C000606060CFFFFFF0000FEFE00000000FC82
:104F1C00FEFC00183C7E66E6CE84000006FFFF0611
:104F2C0006FCFEFC0C0606060000FEFE0000C0F8A7
:104F3C00FC4E4646464E7C7840183C76E6CECC80FD
:104F4C000000000000000000000000000000000055
:104F5C000000000001070F1F1F3F3F3F3F1F0F03C3
:104F6C000000000000000000000000000F0F000017
:104F7C00000F0F0F000000000F0F000003070E0CB6
:104F8C0018180C060F0F0F0000010F0E0C180C0F49
:104F9C00070100040E0C180C0F070000000F0F0087
:104FAC00000F0F0F0000000000000F0F00000007A3
:104FBC00070C0C181C0C060600040E0C180C0F0722
:104FCC0000000000000000000000000000000000D5
:104FDC0000000000000000000000000000000000C5
:104FEC0000000000000000000000000000000000B5
:104FFC0000000000000000000000000000000000A5
:10500C000000000000000000000000000000000094
:10501C000000000000000000000000000000000084
:10502C000000000000000000000000000000000074
:10503C000000000000000000000000000000000064
:10504C0001000000000070181718B3194218561808
:10505C00B71800000000B20E820E7A0E6B0E5D0EB9
:10506C005C0E00000000811D1718CD1C7F0D780D03
:10507C00500D6C0D600D800D4F0D6C1D6B1D171AB6
:10508C00711B760C580CE10B820B000103070F1FF0
:10509C003F7F0080C0E0F0F8FCFE0F0AF709E20940
:1050AC00C809AC097D096B0951092F0953006D41E1
:1050BC00680043000D0A002069732061207472613E
:1050CC00696C657220626C6F636B3A0020697320A7
:1050DC0061206461746120626C6F636B3A005043B1
:1050EC00445F41757468656E7469636174652829E1
:1050FC00206661696C65643A20004D494641524511
:10510C005F57726974652829206661696C65643A19
:10511C002000626C6F636B20776173207772697407
:10512C0074656E005043445F41757468656E7469B4
:10513C00636174652829206661696C656420287236
:10514C00656164293A20004D49464152455F7265BC
:0E515C0061642829206661696C65643A200050
:00000001FF
